{
  "contractName": "Messenger",
  "abi": [
    {
      "inputs": [],
      "payable": false,
      "stateMutability": "nonpayable",
      "type": "constructor"
    },
    {
      "constant": false,
      "inputs": [
        {
          "name": "myMessage",
          "type": "string"
        }
      ],
      "name": "add",
      "outputs": [],
      "payable": false,
      "stateMutability": "nonpayable",
      "type": "function"
    },
    {
      "constant": true,
      "inputs": [
        {
          "name": "index",
          "type": "uint256"
        }
      ],
      "name": "getMessage",
      "outputs": [
        {
          "name": "",
          "type": "string"
        }
      ],
      "payable": false,
      "stateMutability": "view",
      "type": "function"
    }
  ],
  "bytecode": "0x608060405234801561001057600080fd5b50336000806101000a81548173ffffffffffffffffffffffffffffffffffffffff021916908373ffffffffffffffffffffffffffffffffffffffff1602179055506103f6806100606000396000f3fe60806040526004361061004c576000357c0100000000000000000000000000000000000000000000000000000000900463ffffffff16806386f79edb14610051578063b0c8f9dc14610105575b600080fd5b34801561005d57600080fd5b5061008a6004803603602081101561007457600080fd5b81019080803590602001909291905050506101cd565b6040518080602001828103825283818151815260200191508051906020019080838360005b838110156100ca5780820151818401526020810190506100af565b50505050905090810190601f1680156100f75780820380516001836020036101000a031916815260200191505b509250505060405180910390f35b34801561011157600080fd5b506101cb6004803603602081101561012857600080fd5b810190808035906020019064010000000081111561014557600080fd5b82018360208201111561015757600080fd5b8035906020019184600183028401116401000000008311171561017957600080fd5b91908080601f016020809104026020016040519081016040528093929190818152602001838380828437600081840152601f19601f820116905080830192505050505050509192919290505050610288565b005b60606001828154811015156101de57fe5b906000526020600020018054600181600116156101000203166002900480601f01602080910402602001604051908101604052809291908181526020018280546001816001161561010002031660029004801561027c5780601f106102515761010080835404028352916020019161027c565b820191906000526020600020905b81548152906001019060200180831161025f57829003601f168201915b50505050509050919050565b6000809054906101000a900473ffffffffffffffffffffffffffffffffffffffff1673ffffffffffffffffffffffffffffffffffffffff163373ffffffffffffffffffffffffffffffffffffffff161415156102e357600080fd5b6001819080600181540180825580915050906001820390600052602060002001600090919290919091509080519060200190610320929190610325565b505050565b828054600181600116156101000203166002900490600052602060002090601f016020900481019282601f1061036657805160ff1916838001178555610394565b82800160010185558215610394579182015b82811115610393578251825591602001919060010190610378565b5b5090506103a191906103a5565b5090565b6103c791905b808211156103c35760008160009055506001016103ab565b5090565b9056fea165627a7a72305820654b65ab55c8d6f23fbfb8cc1d393c123dd81fa12228b38065eb5d9277b648210029",
  "source": "pragma solidity ^0.5.0;\r\n\r\ncontract Messenger {\r\n    address owner;\r\n    string[] messages;\r\n\r\n    constructor() public {\r\n        owner = msg.sender;\r\n    }\r\n\r\n    function add(string memory myMessage) public {\r\n      require(msg.sender == owner);\r\n      messages.push(myMessage);\r\n    }\r\n\r\n    function getMessage(uint index) view public returns(string memory){\r\n        return messages[index];\r\n\r\n    }\r\n}\r\n",
  "sourcePath": "C:/Users/kmpsi/Desktop/Messenger/server/contracts/Messenger.sol",
  "compiler": {
    "name": "solc",
    "version": "0.5.0+commit.1d4f565a.Emscripten.clang"
  },
  "schemaVersion": "3.0.2",
  "updatedAt": "2019-07-25T13:06:55.434Z",
  "devdoc": {
    "methods": {}
  },
  "userdoc": {
    "methods": {}
  }
}